:100000000C942A000C9447000C9447000C94470071
:100010000C9447000C9447000C9447000C94470044
:100020000C9447000C9447000C94C5110C94A40642
:100030000C9447000C94E2110C9447000C94470078
:100040000C9447000C9447000C9447000C94470014
:100050000C94470011241FBECFE5D8E0DEBFCDBF12
:1000600011E0A0E6B0E0E2E5F1E302C005900D92F8
:10007000A238B107D9F711E0A2E8B1E001C01D92A2
:10008000A73AB107E1F70E945E120C94A7180C94EE
:100090000000EF92FF920F931F937B018C0120E0F1
:1000A00030E040E05FE40E94490388238CF0C801FF
:1000B000B70120E030E040E05FE40E94C1010E940F
:1000C000A9039B01AC01205030404040504806C07D
:1000D000C801B7010E94A9039B01AC01B901CA0183
:1000E0001F910F91FF90EF900895A0E0B0E0EBE733
:1000F000F0E00C940318DC012B01FA019C91923082
:1001000008F439C1EB018881823008F433C194309E
:1001100069F4843009F02FC111969C91119789815F
:10012000981709F428C1A4E6B1E025C1843009F488
:1001300021C18230A9F4923009F01DC19A01AD01AC
:1001400088E0EA010990AE01E90109929E0181501F
:10015000C1F7E201898111969C918923818308C1AD
:10016000923009F407C112962D903C901397EB0141
:100170008A819B811496AD90BD90CD90DC901797AD
:10018000EC80FD800E811F819101281B390BB90184
:1001900037FF04C066277727621B730B6032710537
:1001A0000CF061C0121613066CF537014801062EDB
:1001B00004C096948794779467940A94D2F721E0C8
:1001C00030E040E050E004C0220F331F441F551FB1
:1001D0006A95D2F721503040404050402E213F21B7
:1001E00040235123211531054105510521F021E01E
:1001F00030E040E050E079018A01E628F72808293C
:1002000019293CC0232BD1F1260E371E350146019A
:10021000062E04C096948794779467940A94D2F734
:1002200021E030E040E050E004C0220F331F441FC3
:10023000551F6A95D2F721503040404050402A2146
:100240003B214C215D21211531054105510521F04E
:1002500021E030E040E050E059016A01A628B728CB
:10026000C828D9280BC0821593052CF01C01AA249C
:10027000BB24650103C0EE24FF24870111969C91E5
:10028000D20111968C91981709F445C0992339F041
:10029000A80197012A193B094C095D0906C0A6016E
:1002A00095012E193F09400B510B57FD08C01182D3
:1002B0003382228224833583468357831DC081E0A5
:1002C00081833382228288279927DC01821B930B4A
:1002D000A40BB50B84839583A683B7830DC0220F2F
:1002E000331F441F551F24833583468357838281E0
:1002F000938101979383828324813581468157813D
:10030000DA01C9010197A109B1098F5F9F4FAF4F72
:10031000BF4328F30BC0918333822282EA0CFB1C7B
:100320000C1D1D1DE482F5820683178383E0808304
:10033000248135814681578157FF1AC0C901AA27F8
:1003400097FDA095BA2F81709070A070B0705695EF
:10035000479537952795822B932BA42BB52B848318
:100360009583A683B7838281938101969383828349
:10037000DF0101C0D201CD01CDB7DEB7E2E10C94BF
:100380001F18A0E2B0E0E7ECF1E00C940F186983CD
:100390007A838B839C832D833E834F835887E9E048
:1003A000EE2EF12CEC0EFD1ECE010196B7010E943F
:1003B000D2048E010F5E1F4FCE010596B8010E9438
:1003C000D2048A8991E089278A8BC701B801AE01DE
:1003D000475E5F4F0E9475000E94FD03A096E6E015
:1003E0000C942B18A0E2B0E0E8EFF1E00C940F18A9
:1003F00069837A838B839C832D833E834F835887C5
:10040000F9E0EF2EF12CEC0EFD1ECE010196B701A6
:100410000E94D2048E010F5E1F4FCE010596B801D7
:100420000E94D204C701B801AE01475E5F4F0E942F
:1004300075000E94FD03A096E6E00C942B18A0E244
:10044000B0E0E5E2F2E00C94031869837A838B83D1
:100450009C832D833E834F835887CE010196BE0136
:10046000675F7F4F0E94D204CE010596BE016F5E8A
:100470007F4F0E94D2049985923088F0898982301A
:10048000C8F0943019F4823051F404C0843029F457
:10049000923081F484E691E0C6C0923049F420E0C5
:1004A0009A858A89981321E02A87CE010996BBC0D4
:1004B000823049F420E09A858A89981321E02A8BBA
:1004C000CE014196B0C02D843E844F8458886D88FB
:1004D0007E888F88988CEE24FF248701AA24BB2471
:1004E000650140E050E060E070E0E0E0F0E0C10174
:1004F00081709070892BE9F0E60CF71C081D191D1E
:100500009A01AB012A0D3B1D4C1D5D1D80E090E062
:10051000A0E0B0E0E614F7040805190520F481E036
:1005200090E0A0E0B0E0BA01A901480F591F6A1F8E
:100530007B1FAA0CBB1CCC1CDD1C97FE08C081E0F5
:1005400090E0A0E0B0E0A82AB92ACA2ADB2A3196B6
:10055000E032F10549F0660C771C881C991C569412
:10056000479437942794C3CFFA85EA892B893C892D
:100570008B859C85280F391F2E5F3F4F17C0CA01FE
:1005800081709070892B61F016950795F794E79428
:1005900080E090E0A0E0B0E8E82AF92A0A2B1B2BC3
:1005A00076956795579547952F5F3F4F77FDE7CF36
:1005B0000CC0440F551F661F771F17FD4160EE0CDE
:1005C000FF1C001F111F21503040403090E05907A0
:1005D00090E0690790E4790760F32B8F3C8FDB0193
:1005E000CA018F779070A070B07080349105A1051A
:1005F000B10561F447FD0AC0E114F10401051105DC
:1006000029F0405C5F4F6F4F7F4F40781A8EFE1786
:1006100011F081E08A8F4D8F5E8F6F8F78A383E01A
:10062000898FCE0149960E94FD03A096E2E10C94C9
:100630001F18A8E1B0E0EFE1F3E00C940F18698314
:100640007A838B839C832D833E834F83588789E0F5
:10065000E82EF12CEC0EFD1ECE010196B7010E9492
:10066000D2048E010F5E1F4FCE010596B8010E9485
:10067000D2048985823040F08989823028F0C70110
:10068000B8010E944A0501C08FEF6896E6E00C941D
:100690002B18A8E1B0E0EFE4F3E00C940F186983A5
:1006A0007A838B839C832D833E834F83588789E095
:1006B000E82EF12CEC0EFD1ECE010196B7010E9432
:1006C000D2048E010F5E1F4FCE010596B8010E9425
:1006D000D2048985823040F08989823028F0C701B0
:1006E000B8010E944A0501C08FEF6896E6E00C94BD
:1006F0002B18A8E1B0E0EFE7F3E00C940F18698342
:100700007A838B839C832D833E834F83588789E034
:10071000E82EF12CEC0EFD1ECE010196B7010E94D1
:10072000D2048E010F5E1F4FCE010596B8010E94C4
:10073000D2048985823040F08989823028F0C7014F
:10074000B8010E944A0501C081E06896E6E00C9479
:100750002B18ACE0B0E0EFEAF3E00C9413186983D7
:100760007A838B839C83CE010196BE016B5F7F4FA2
:100770000E94D2048D81823061F1823050F1843048
:1007800021F48E81882351F12EC02F81388537FDC9
:1007900020C06E812F3131051CF06623F9F023C093
:1007A0008EE190E0821B930B29853A854B855C8511
:1007B00004C056954795379527958A95D2F76623B5
:1007C000B1F050954095309521953F4F4F4F5F4F79
:1007D0000EC020E030E040E050E009C02FEF3FEFD6
:1007E0004FEF5FE704C020E030E040E050E8B9019F
:1007F000CA012C96E2E00C942F18DF92EF92FF9240
:100800000F931F93FC01E480F58006811781D1804E
:100810008081823048F480E090E0A0E1B0E0E82AF6
:10082000F92A0A2B1B2BA5C0843009F49FC0823003
:1008300021F4EE24FF24870105C0E114F104010531
:10084000110519F4E0E0F0E096C0628173819FEF3A
:10085000623879070CF05BC022E83FEF261B370BAC
:100860002A3131052CF020E030E040E050E02AC091
:10087000B801A701022E04C0769567955795479554
:100880000A94D2F781E090E0A0E0B0E004C0880FC5
:10089000991FAA1FBB1F2A95D2F70197A109B10979
:1008A0008E219F21A023B1230097A105B10521F03E
:1008B00081E090E0A0E0B0E09A01AB01282B392B59
:1008C0004A2B5B2BDA01C9018F779070A070B07052
:1008D00080349105A105B10539F427FF09C0205CDA
:1008E0003F4F4F4F5F4F04C0215C3F4F4F4F5F4F13
:1008F000E0E0F0E02030A0E03A07A0E04A07A0E402
:100900005A0710F0E1E0F0E079018A0127C0603871
:10091000710564F5FB01E158FF4FD801C7018F77DE
:100920009070A070B07080349105A105B10539F4C4
:10093000E7FE0DC080E490E0A0E0B0E004C08FE3EB
:1009400090E0A0E0B0E0E80EF91E0A1F1B1F17FFA1
:1009500005C016950795F794E794319687E01695AC
:100960000795F794E7948A95D1F705C0EE24FF2404
:100970008701EFEFF0E06E2F679566276795902F60
:100980009F77D794DD24D7948E2F8695492F462BB9
:10099000582F5D29B701CA011F910F91FF90EF9069
:1009A000DF900895FC01DB01408151812281622F9B
:1009B0006F7770E0221F2227221F9381892F880FD3
:1009C000822B282F30E0991F9927991F11969C930D
:1009D000119721153105A9F54115510561057105DD
:1009E00011F482E037C082E89FEF13969C938E93B8
:1009F00012979A01AB0167E0220F331F441F551F66
:100A00006A95D1F783E08C930DC0220F331F441FEA
:100A1000551F12968D919C911397019713969C9355
:100A20008E931297203080E0380780E0480780E4FA
:100A3000580758F314962D933D934D935C93179755
:100A400008952F3F310579F4411551056105710570
:100A500019F484E08C93089564FF03C081E08C93C3
:100A600012C01C9210C02F57304013963C932E9307
:100A7000129783E08C9387E0440F551F661F771F02
:100A80008A95D1F7706414964D935D936D937C9322
:100A9000179708951F93DC01FB019C91923008F495
:100AA00047C08081823008F443C0943051F41196DD
:100AB0001C91843099F58181682F70E0611B710968
:100AC0003FC0843021F0923031F48230B9F181811D
:100AD000882389F12DC011961C9111978230F1F075
:100AE00081811817D9F412962D913C911397828128
:100AF00093818217930794F028173907BCF0149656
:100B00008D919D910D90BC91A02D248135814681C0
:100B10005781281739074A075B0718F4112341F05A
:100B20000AC082179307A407B50740F4112319F0F0
:100B300061E070E005C06FEF7FEF02C060E070E041
:100B4000CB011F910895DF93CF9300D000D000D048
:100B5000CDB7DEB76B837C838D839E838B819C8135
:100B6000AD81BE81880F991FAA1FBB1F880F991FD7
:100B7000AA1FBB1F880F991FAA1FBB1F880F991F91
:100B8000AA1FBB1F9C01AD0180E092E1AAE7B0E083
:100B9000BC01CD010E94E117DA01C90101979A83D6
:100BA0008983E0E4F0E089819A81892F9927808305
:100BB000E9E2F0E089818083AAE2B0E0EAE2F0E0D5
:100BC000808188608C93AAE2B0E0EAE2F0E0808164
:100BD00080618C93AAE2B0E0EAE2F0E08081806874
:100BE0008C93E0E4F0E086E8808326960FB6F894D4
:100BF000DEBF0FBECDBFCF91DF910895DF93CF93BE
:100C00000F92CDB7DEB78983EBE2F0E08081882FC9
:100C100090E0807290700097B9F3ECE2F0E0898187
:100C200080830F90CF91DF910895DF93CF93CDB75D
:100C3000DEB7EBE2F0E080818823DCF7ECE2F0E065
:100C40008081CF91DF910895DF93CF9300D00F92F1
:100C5000CDB7DEB79B838A8319820EC08981282F86
:100C600030E08A819B81FC01E20FF31F80810E94AA
:100C7000FE0589818F5F89838981282F30E08A81F1
:100C80009B81FC01E20FF31F8081882339F70F90CD
:100C90000F900F90CF91DF9108950F931F93DF93E3
:100CA000CF9300D00F92CDB7DEB79B838A83198292
:100CB0008981282F30E08A819B818C01020F131FCC
:100CC0000E941506F80180830FC089818F5F898398
:100CD0008981282F30E08A819B818C01020F131FAC
:100CE0000E941506F80180838981282F30E08A81CF
:100CF0009B81FC01E20FF31F908180918401981782
:100D000021F78981282F30E08A819B81FC01E20F45
:100D1000F31F10820F900F900F90CF91DF911F91D2
:100D20000F910895DF93CF9300D0CDB7DEB79A83AC
:100D3000898389819A8190938301809382010F90A6
:100D40000F90CF91DF9108951F920F920FB60F92DF
:100D500011242F933F934F935F936F937F938F93C0
:100D60009F93AF93BF93EF93FF93DF93CF93CDB751
:100D7000DEB78091870190918801009729F0E0917A
:100D80008701F09188010995CF91DF91FF91EF9153
:100D9000BF91AF919F918F917F916F915F914F9193
:100DA0003F912F910F900FBE0F901F901895DF93DA
:100DB000CF9300D0CDB7DEB79A838983A3E5B0E0A7
:100DC000E981FA818581882F90E0880F991F880F2B
:100DD000991F880F991F80688C93A3E5B0E0E3E525
:100DE000F0E08081982F987FE981FA818481892BB6
:100DF0008C93A2E5B0E0E981FA81808191818C93A6
:100E0000E981FA818581813079F4ACE5B0E0E9814E
:100E1000FA81828193818C93A9E5B0E0E9E5F0E065
:100E2000808182608C9307C0A9E5B0E0E9E5F0E03D
:100E3000808181608C930F900F90CF91DF91089506
:100E4000DF93CF93CDB7DEB7E3E5F0E01082E2E5C4
:100E5000F0E01082ECE5F0E01082CF91DF91089590
:100E6000DF93CF9300D0CDB7DEB79A838983898192
:100E70009A8190938601809385010F900F90CF9176
:100E8000DF910895DF93CF9300D0CDB7DEB79A837B
:100E9000898389819A8190938801809387010F903B
:100EA0000F90CF91DF910895DF93CF9300D000D0C2
:100EB0000F92CDB7DEB789836A834B838A818830EE
:100EC00008F0D5C08981843008F0D1C08981282FED
:100ED00030E03D832C838C819D818130910509F424
:100EE00043C02C813D81223031052CF48C819D81C1
:100EF000009771F0BCC02C813D812230310509F48E
:100F00005FC08C819D818330910509F485C0AFC09D
:100F10008B818130A1F4AAE3B0E0EAE3F0E08081C4
:100F2000482F8A81282F30E081E090E0022E02C015
:100F3000880F991F0A94E2F7842B8C9398C0AAE338
:100F4000B0E0EAE3F0E08081482F8A81282F30E08A
:100F500081E090E0022E02C0880F991F0A94E2F708
:100F6000809584238C9383C08B818130A1F4A7E387
:100F7000B0E0E7E3F0E08081482F8A81282F30E05D
:100F800081E090E0022E02C0880F991F0A94E2F7D8
:100F9000842B8C936CC0A7E3B0E0E7E3F0E08081A2
:100FA000482F8A81282F30E081E090E0022E02C095
:100FB000880F991F0A94E2F7809584238C9357C079
:100FC0008B818130A1F4A4E3B0E0E4E3F0E0808120
:100FD000482F8A81282F30E081E090E0022E02C065
:100FE000880F991F0A94E2F7842B8C9340C0A4E3E6
:100FF000B0E0E4E3F0E08081482F8A81282F30E0E0
:1010000081E090E0022E02C0880F991F0A94E2F757
:10101000809584238C932BC08B818130A1F4A1E334
:10102000B0E0E1E3F0E08081482F8A81282F30E0B2
:1010300081E090E0022E02C0880F991F0A94E2F727
:10104000842B8C9314C0A1E3B0E0E1E3F0E0808155
:10105000482F8A81282F30E081E090E0022E02C0E4
:10106000880F991F0A94E2F7809584238C930F9040
:101070000F900F900F900F90CF91DF910895DF9315
:10108000CF9300D000D00F92CDB7DEB789836A83AB
:101090004B838A81883008F0D5C08981843008F07C
:1010A000D1C08981282F30E03D832C838C819D81A4
:1010B0008130910509F443C02C813D8122303105F6
:1010C0002CF48C819D81009771F0BCC02C813D81F6
:1010D0002230310509F45FC08C819D8183309105F8
:1010E00009F485C0AFC08B818130A1F4ABE3B0E0DF
:1010F000EBE3F0E08081482F8A81282F30E081E007
:1011000090E0022E02C0880F991F0A94E2F7842B08
:101110008C9398C0ABE3B0E0EBE3F0E08081482F24
:101120008A81282F30E081E090E0022E02C0880FF3
:10113000991F0A94E2F7809584238C9383C08B8156
:101140008130A1F4A8E3B0E0E8E3F0E08081482F2B
:101150008A81282F30E081E090E0022E02C0880FC3
:10116000991F0A94E2F7842B8C936CC0A8E3B0E03B
:10117000E8E3F0E08081482F8A81282F30E081E089
:1011800090E0022E02C0880F991F0A94E2F7809522
:1011900084238C9357C08B818130A1F4A5E3B0E008
:1011A000E5E3F0E08081482F8A81282F30E081E05C
:1011B00090E0022E02C0880F991F0A94E2F7842B58
:1011C0008C9340C0A5E3B0E0E5E3F0E08081482FD8
:1011D0008A81282F30E081E090E0022E02C0880F43
:1011E000991F0A94E2F7809584238C932BC08B81FE
:1011F0008130A1F4A2E3B0E0E2E3F0E08081482F87
:101200008A81282F30E081E090E0022E02C0880F12
:10121000991F0A94E2F7842B8C9314C0A2E3B0E0E8
:10122000E2E3F0E08081482F8A81282F30E081E0DE
:1012300090E0022E02C0880F991F0A94E2F7809571
:1012400084238C930F900F900F900F900F90CF915D
:10125000DF910895DF93CF9300D000D00F92CDB7E8
:10126000DEB78A836B8319828B81883008F084C053
:101270008A81843008F080C08A81282F30E03D8345
:101280002C834C815D814130510579F18C819D81A8
:101290008230910534F42C813D812115310569F0AE
:1012A0006BC04C815D8142305105B9F18C819D81CB
:1012B0008330910509F449C05FC0E9E3F0E0808123
:1012C000282F30E08B81882F90E0A90102C055952E
:1012D00047958A95E2F7CA0181709070882319F0CA
:1012E00081E0898349C0198247C0E6E3F0E080814C
:1012F000282F30E08B81882F90E0A90102C05595FE
:1013000047958A95E2F7CA0181709070882319F099
:1013100081E0898331C019822FC0E3E3F0E080814E
:10132000282F30E08B81882F90E0A90102C05595CD
:1013300047958A95E2F7CA0181709070882319F069
:1013400081E0898319C0198217C0E0E3F0E0808151
:10135000282F30E08B81882F90E0A90102C055959D
:1013600047958A95E2F7CA0181709070882319F039
:1013700081E0898301C0198289810F900F900F90BD
:101380000F900F90CF91DF910895DF93CF9300D00E
:1013900000D0CDB7DEB789836A838981843090F528
:1013A0008981282F30E03C832B838B819C81813085
:1013B0009105D1F02B813C81223031052CF48B81B9
:1013C0009C81009761F01EC02B813C812230310549
:1013D00081F08B819C818330910581F013C0EAE319
:1013E000F0E08A8180830EC0E7E3F0E08A818083A9
:1013F00009C0E4E3F0E08A81808304C0E1E3F0E027
:101400008A8180830F900F900F900F90CF91DF9182
:101410000895DF93CF9300D000D0CDB7DEB7898396
:101420006A838981843090F58981282F30E03C835C
:101430002B838B819C8181309105D1F02B813C8164
:10144000223031052CF48B819C81009761F01EC005
:101450002B813C812230310581F08B819C8183304E
:10146000910581F013C0EBE3F0E08A8180830EC028
:10147000E8E3F0E08A81808309C0E5E3F0E08A8157
:10148000808304C0E2E3F0E08A8180830F900F90B4
:101490000F900F90CF91DF910895DF93CF9300D0FD
:1014A00000D0CDB7DEB78A8319828A81843090F567
:1014B0008A81282F30E03C832B838B819C81813073
:1014C0009105D1F02B813C81223031052CF48B81A8
:1014D0009C81009761F01EC02B813C812230310538
:1014E00081F08B819C818330910581F013C0E9E309
:1014F000F0E0808189830EC0E6E3F0E0808189839B
:1015000009C0E3E3F0E08081898304C0E0E3F0E018
:101510008081898389810F900F900F900F90CF91D8
:10152000DF910895DF93CF9300D000D00F92CDB715
:10153000DEB789836A834B838A81883008F072C062
:101540008981843008F06EC08981282F30E03D8386
:101550002C838C819D818130910549F12C813D81C5
:10156000223031052CF48C819D81009761F05AC0A6
:101570002C813D812230310571F18C819D81833038
:101580009105E9F14FC0ABE3B0E0EBE3F0E080811F
:10159000482F8A81282F30E081E090E0022E02C09F
:1015A000880F991F0A94E2F784278C933BC0A8E325
:1015B000B0E0E8E3F0E08081482F8A81282F30E016
:1015C00081E090E0022E02C0880F991F0A94E2F792
:1015D00084278C9327C0A5E3B0E0E5E3F0E08081A9
:1015E000482F8A81282F30E081E090E0022E02C04F
:1015F000880F991F0A94E2F784278C9313C0A2E303
:10160000B0E0E2E3F0E08081482F8A81282F30E0CB
:1016100081E090E0022E02C0880F991F0A94E2F741
:1016200084278C930F900F900F900F900F90CF9175
:10163000DF910895DF93CF93CDB7DEB783E067E006
:1016400041E00E94540782E060E041E00E945407BC
:1016500083E067E040E00E943F0882E060E040E015
:101660000E943F0883E066E041E00E943F08CF917E
:10167000DF910895DF93CF93CDB7DEB782E062E0CC
:1016800041E00E94540782E063E041E00E94540779
:1016900082E062E040E00E943F0882E063E040E0D8
:1016A0000E943F0882E061E041E00E943F08CF9144
:1016B000DF910895DF93CF930F92CDB7DEB7898383
:1016C00083E067E040E00E943F0882E060E040E0A5
:1016D0000E943F088981982F917083E067E0492F2D
:1016E0000E943F0889818695982F917082E060E082
:1016F000492F0E943F080F90CF91DF910895DF930B
:10170000CF930F92CDB7DEB7898382E062E040E0ED
:101710000E943F0882E063E040E00E943F08898128
:10172000982F917082E062E0492F0E943F088981E2
:101730008695982F917082E063E0492F0E943F08C0
:101740000F90CF91DF910895DF93CF93CDB7DEB7A0
:1017500083E065E041E00E945407CF91DF91089556
:10176000DF93CF930F92CDB7DEB789838981882F1E
:1017700090E0009729F483E065E041E00E943F0893
:101780000F90CF91DF910895DF93CF930F92CDB754
:10179000DEB789838981882F90E0009729F483E060
:1017A00065E040E00E943F080F90CF91DF910895DF
:1017B000DF93CF930F92CDB7DEB789838981882FCE
:1017C00090E0009729F483E065E040E00E94920AEF
:1017D0000F90CF91DF910895DF93CF93CDB7DEB710
:1017E000AA970FB6F894DEBF0FBECDBF80E062E0CF
:1017F00041E00E94540780E060E041E00E9454070D
:1018000080E061E041E00E94540780E061E040E058
:101810000E943F0880E090E0A0EAB1E48FA398A77F
:10182000A9A7BAA76FA178A589A59AA520E030E05D
:101830004AEF54E40E941F02DC01CB018BA39CA35E
:10184000ADA3BEA36BA17CA18DA19EA120E030E041
:1018500040E85FE30E94790388232CF481E090E064
:101860009AA389A33FC06BA17CA18DA19EA120E07A
:101870003FEF4FE757E40E94190318164CF56FA18C
:1018800078A589A59AA520E030E040E251E40E94C5
:101890001F02DC01CB01BC01CD010E944900DC012B
:1018A000CB019AA389A30FC088EC90E098A38F8FF7
:1018B0008F8D98A10197F1F798A38F8F89A19AA195
:1018C00001979AA389A389A19AA1009769F714C0E7
:1018D0006BA17CA18DA19EA10E944900DC01CB01DE
:1018E0009AA389A389A19AA19E8F8D8F8D8D9E8D9C
:1018F0000197F1F79E8F8D8F81E06FEF0E94C509F0
:1019000088E30E947A0E8EE00E947A0E80E090E0DA
:10191000A0E8BFE3898F9A8FAB8FBC8F698D7A8DDA
:101920008B8D9C8D20E030E04AEF54E40E941F0232
:10193000DC01CB018D8B9E8BAF8BB88F6D897E893F
:101940008F89988D20E030E040E85FE30E947903C2
:1019500088232CF481E090E09C8B8B8B3FC06D89B9
:101960007E898F89988D20E03FEF4FE757E40E94F2
:10197000190318164CF5698D7A8D8B8D9C8D20E09E
:1019800030E040E251E40E941F02DC01CB01BC01C7
:10199000CD010E944900DC01CB019C8B8B8B0FC0D9
:1019A00088EC90E09A8B898B89899A890197F1F765
:1019B0009A8B898B8B899C8901979C8B8B8B8B89CC
:1019C0009C89009769F714C06D897E898F89988DED
:1019D0000E944900DC01CB019C8B8B8B8B899C89FD
:1019E000988B8F878F8598890197F1F7988B8F87D0
:1019F00081E00E947A0E80E090E0A0E8BFE38B8750
:101A00009C87AD87BE876B857C858D859E8520E014
:101A100030E04AEF54E40E941F02DC01CB018F83C7
:101A20009887A987BA876F81788589859A8520E00C
:101A300030E040E85FE30E94790388232CF481E0E2
:101A400090E09E838D833FC06F81788589859A85DC
:101A500020E03FEF4FE757E40E94190318164CF5BA
:101A60006B857C858D859E8520E030E040E251E4E9
:101A70000E941F02DC01CB01BC01CD010E94490084
:101A8000DC01CB019E838D830FC088EC90E09C83AA
:101A90008B838B819C810197F1F79C838B838D8154
:101AA0009E8101979E838D838D819E81009769F72A
:101AB00014C06F81788589859A850E944900DC0170
:101AC000CB019E838D838D819E819A8389838981B9
:101AD0009A810197F1F79A83898386E00E947A0EB2
:101AE000AA960FB6F894DEBF0FBECDBFCF91DF919F
:101AF0000895DF93CF93CDB7DEB76C970FB6F89408
:101B0000DEBF0FBECDBF80E060E041E00E943F0835
:101B100080E090E0A0E0B0E4898F9A8FAB8FBC8F1B
:101B2000698D7A8D8B8D9C8D20E030E04AEF54E4F6
:101B30000E941F02DC01CB018D8B9E8BAF8BB88F77
:101B40006D897E898F89988D20E030E040E85FE3E1
:101B50000E94790388232CF481E090E09C8B8B8B8E
:101B60003FC06D897E898F89988D20E03FEF4FE7D8
:101B700057E40E94190318164CF5698D7A8D8B8DE8
:101B80009C8D20E030E040E251E40E941F02DC0125
:101B9000CB01BC01CD010E944900DC01CB019C8B33
:101BA0008B8B0FC088EC90E09A8B898B89899A89FE
:101BB0000197F1F79A8B898B8B899C8901979C8B74
:101BC0008B8B8B899C89009769F714C06D897E89FE
:101BD0008F89988D0E944900DC01CB019C8B8B8BF7
:101BE0008B899C89988B8F878F8598890197F1F7CE
:101BF000988B8F8780E060E040E00E943F0880E0A3
:101C000090E0A0E0B0E48B879C87AD87BE876B85B2
:101C10007C858D859E8520E030E04AEF54E40E946B
:101C20001F02DC01CB018F839887A987BA876F8158
:101C3000788589859A8520E030E040E85FE30E945E
:101C4000790388232CF481E090E09E838D833FC04C
:101C50006F81788589859A8520E03FEF4FE757E4CB
:101C60000E94190318164CF56B857C858D859E8521
:101C700020E030E040E251E40E941F02DC01CB0191
:101C8000BC01CD010E944900DC01CB019E838D8304
:101C90000FC088EC90E09C838B838B819C810197A3
:101CA000F1F79C838B838D819E8101979E838D8329
:101CB0008D819E81009769F714C06F817885898531
:101CC0009A850E944900DC01CB019E838D838D8122
:101CD0009E819A83898389819A810197F1F79A83FA
:101CE00089836C960FB6F894DEBF0FBECDBFCF913F
:101CF000DF910895DF93CF93CDB7DEB72F970FB65F
:101D0000F894DEBF0FBECDBF8F8781E06F850E9444
:101D1000090A80E062E040E00E943F080E94790DDD
:101D200080E090E0A0E8BFE38B879C87AD87BE870B
:101D30006B857C858D859E8520E030E04AEF54E4FC
:101D40000E941F02DC01CB018F839887A987BA8785
:101D50006F81788589859A8520E030E040E85FE3EF
:101D60000E94790388232CF481E090E09E838D8388
:101D70003FC06F81788589859A8520E03FEF4FE7E6
:101D800057E40E94190318164CF56B857C858D85E8
:101D90009E8520E030E040E251E40E941F02DC0119
:101DA000CB01BC01CD010E944900DC01CB019E8327
:101DB0008D830FC088EC90E09C838B838B819C810A
:101DC0000197F1F79C838B838D819E8101979E8380
:101DD0008D838D819E81009769F714C06F8178850E
:101DE00089859A850E944900DC01CB019E838D8301
:101DF0008D819E819A83898389819A810197F1F7E8
:101E00009A8389832F960FB6F894DEBF0FBECDBF9D
:101E1000CF91DF910895DF93CF93CDB7DEB72F97A2
:101E20000FB6F894DEBF0FBECDBF8F8781E06F8500
:101E30000E94090A80E062E041E00E943F080E949F
:101E4000790D80E090E0A0E8BFE38B879C87AD87A9
:101E5000BE876B857C858D859E8520E030E04AEFCE
:101E600054E40E941F02DC01CB018F839887A9876D
:101E7000BA876F81788589859A8520E030E040E8CF
:101E80005FE30E94790388232CF481E090E09E8335
:101E90008D833FC06F81788589859A8520E03FEFEB
:101EA0004FE757E40E94190318164CF56B857C85A3
:101EB0008D859E8520E030E040E251E40E941F02C3
:101EC000DC01CB01BC01CD010E944900DC01CB014A
:101ED0009E838D830FC088EC90E09C838B838B81E5
:101EE0009C810197F1F79C838B838D819E81019763
:101EF0009E838D838D819E81009769F714C06F81C9
:101F0000788589859A850E944900DC01CB019E83F2
:101F10008D838D819E819A83898389819A8101979E
:101F2000F1F79A8389832F960FB6F894DEBF0FBE20
:101F3000CDBFCF91DF910895DF93CF9300D00F9263
:101F4000CDB7DEB79B838A8319820EC08981282F83
:101F500030E08A819B81FC01E20FF31F80810E94A7
:101F60000B0F89818F5F89838981282F30E08A81D7
:101F70009B81FC01E20FF31F8081882339F70F90CA
:101F80000F900F90CF91DF910895DF93CF93CDB74E
:101F9000DEB72E970FB6F894DEBF0FBECDBF81E03F
:101FA0000E947A0E80E090E0A0E2B1E48B879C87EB
:101FB000AD87BE876B857C858D859E8520E030E072
:101FC0004AEF54E40E941F02DC01CB018F83988703
:101FD000A987BA876F81788589859A8520E030E066
:101FE00040E85FE30E94790388232CF481E090E0CD
:101FF0009E838D833FC06F81788589859A8520E097
:102000003FEF4FE757E40E94190318164CF56B8514
:102010007C858D859E8520E030E040E251E40E9481
:102020001F02DC01CB01BC01CD010E944900DC0193
:10203000CB019E838D830FC088EC90E09C838B83C3
:102040008B819C810197F1F79C838B838D819E818D
:1020500001979E838D838D819E81009769F714C0BF
:102060006F81788589859A850E944900DC01CB01C2
:102070009E838D838D819E819A83898389819A81B4
:102080000197F1F79A8389832E960FB6F894DEBFF5
:102090000FBECDBFCF91DF910895DF93CF9300D0D6
:1020A00000D00F92CDB7DEB78A836B838A81282F49
:1020B00030E03D832C838C819D8181309105C1F07E
:1020C0002C813D81223031052CF48C819D8100973B
:1020D00061F019C02C813D812230310569F08C817D
:1020E0009D818330910561F00EC08B8189830BC087
:1020F0008B81805C898307C08B81805F898303C06B
:102100008B81805B898389818068898389810E9432
:102110007A0E0F900F900F900F900F90CF91DF914C
:102120000895DF93CF9300D000D0CDB7DEB7898379
:102130006A835C834B8389816A810E944D108B8105
:102140009C810E949C0F0F900F900F900F90CF9149
:10215000DF910895DF93CF93CDB7DEB762970FB6C7
:10216000F894DEBF0FBECDBF9A8B898B89899A897F
:102170009E012F5F3F4FB9014AE050E00E94431893
:10218000CE0101960E949C0F62960FB6F894DEBFB6
:102190000FBECDBFCF91DF910895DF93CF93CDB721
:1021A000DEB780E063E041E00E94540780E064E035
:1021B00041E00E94540780E065E041E00E9454073E
:1021C00080E066E041E00E94540782E064E040E085
:1021D0000E94540782E065E040E00E94540782E0DC
:1021E00066E040E00E94540782E067E040E00E9421
:1021F000540782E064E041E00E943F0882E065E02D
:1022000041E00E943F0882E066E041E00E943F0812
:1022100082E067E041E00E943F08CF91DF9108959E
:10222000DF93CF93CDB7DEB76A970FB6F894DEBFD2
:102230000FBECDBFCE0105969F8B8E8BE2E7F1E0FE
:10224000F98FE88FF0E1FA8FE88DF98D0080888DA5
:10225000998D0196998F888FEE89FF8900828E89EA
:102260009F8901969F8B8E8B9A8D91509A8FEA8DC4
:10227000EE2351F78FEF898357C01C824AC080E05C
:1022800063E041E00E943F0880E064E041E00E949A
:102290003F0880E065E041E00E943F0880E066E0A2
:1022A00041E00E943F088C81982F9D5F80E0692F5C
:1022B00040E00E943F081B8223C08B81982F9C5FC7
:1022C00082E0692F0E942A098A838A818823A9F4DF
:1022D0008C81282F30E08B81482F50E0220F331F54
:1022E000220F331FCE010196820F931F840F951F7B
:1022F000FC0134968081898306C08B818F5F8B833C
:102300008B818430D0F28A81882339F08C818F5F71
:102310008C838C81843008F4B2CF89818F3F21F087
:1023200089818D8B8D8904C089818F3F09F4A5CF68
:102330006A960FB6F894DEBF0FBECDBFCF91DF9186
:102340000895DF93CF93CDB7DEB783E064E041E03B
:102350000E945407CF91DF910895DF93CF93CDB7BB
:10236000DEB783E064E041E00E943F08CF91DF9157
:102370000895DF93CF93CDB7DEB783E064E040E00C
:102380000E943F08CF91DF9108951F920F920FB6E0
:102390000F9211248F939F93DF93CF93CDB7DEB726
:1023A0008091890190918A01019690938A0180938E
:1023B0008901CF91DF919F918F910F900FBE0F9068
:1023C0001F9018951F920F920FB60F9211242F9302
:1023D0003F934F935F936F937F938F939F93AF93AD
:1023E000BF93EF93FF93DF93CF93CDB7DEB7809189
:1023F0008D01882F90E0ECE2F0E02081FC01EF56A7
:10240000FE4F208380918D01882F90E0FC01EF56D4
:10241000FE4F80818332D1F580918D01882F90E02D
:10242000FC01EF56FE4F108210928D0181E991E080
:1024300020E630E0B9010E943A18009749F081E99E
:1024400091E027E630E0B9010E943A18009721F4A4
:1024500080E00E94D80B1FC081E991E02EE630E0B9
:10246000B9010E943A18009721F481E00E947F0B85
:1024700012C081E991E02FE730E0B9010E943A18DB
:10248000009749F480E00E947F0B05C080918D0188
:102490008F5F80938D01CF91DF91FF91EF91BF917D
:1024A000AF919F918F917F916F915F914F913F91EC
:1024B0002F910F900FBE0F901F901895DF93CF9321
:1024C00000D00F92CDB7DEB70E94A40B60E875E292
:1024D00080E090E00E94A3050E941A0B0E943A0B34
:1024E0000E94A1110E94CD100E94EC0B789480E113
:1024F00090E00E946418833C11F00E94AD120E948B
:10250000C50F21E930E080E060E0A9010E94911050
:102510002FE930E081E060E0A9010E9491100E9463
:102520001011898389818A3219F089818332B9F740
:102530008981282F30E03B832A838A819B818332E3
:10254000910541F02A813B812A323105C1F60E9472
:102550004E17D5CF0E94A617D2CFDF93CF93CDB71A
:10256000DEB7ED970FB6F894DEBF0FBECDBF81E0AA
:1025700080938E010E94C50F2FEA30E080E060E07A
:10258000A9010E94911081E060E00E944D101DAEF3
:102590008DC00E9410118CAF8CAD803378F08CAD63
:1025A0008A3360F48DAD882F90E0FC01EB55FE4F2F
:1025B0008CAD80838CAD0E940B0F03C08DAD81501C
:1025C0008DAF80E090E0AAEFB3E48DAB9EABAFABF4
:1025D000B8AF6DA97EA98FA998AD20E030E04AEF91
:1025E00054E40E941F02DC01CB0189AB9AABABAB78
:1025F000BCAB69A97AA98BA99CA920E030E040E88E
:102600005FE30E94790388232CF481E090E098AB8B
:102610008FA73FC069A97AA98BA99CA920E03FEFA9
:102620004FE757E40E94190318164CF56DA97EA9CF
:102630008FA998AD20E030E040E251E40E941F02F3
:10264000DC01CB01BC01CD010E944900DC01CB01C2
:1026500098AB8FA70FC088EC90E09EA78DA78DA5A3
:102660009EA50197F1F79EA78DA78FA598A9019721
:1026700098AB8FA78FA598A9009769F714C069A98F
:102680007AA98BA99CA90E944900DC01CB0198ABD7
:102690008FA78FA598A99CA78BA78BA59CA5019711
:1026A000F1F79CA78BA78DAD8F5F8DAF8DAD82307D
:1026B00008F46FCF0E9410118134E1F70E94C50F1A
:1026C00020EC30E080E060E0A9010E94911081E000
:1026D00060E00E944D101BAE8DC00E9410118AAFA9
:1026E0008AAD803378F08AAD8A3360F48BAD882F61
:1026F00090E0FC01E157FE4F8AAD80838AAD0E94D5
:102700000B0F03C08BAD81508BAF80E090E0AAEF40
:10271000B3E48FA398A7A9A7BAA76FA178A589A5A5
:102720009AA520E030E04AEF54E40E941F02DC0149
:10273000CB018BA39CA3ADA3BEA36BA17CA18DA158
:102740009EA120E030E040E85FE30E947903882307
:102750002CF481E090E09AA389A33FC06BA17CA1F7
:102760008DA19EA120E03FEF4FE757E40E9419039F
:1027700018164CF56FA178A589A59AA520E030E040
:1027800040E251E40E941F02DC01CB01BC01CD01FB
:102790000E944900DC01CB019AA389A30FC088ECF9
:1027A00090E098A38F8F8F8D98A10197F1F798A350
:1027B0008F8F89A19AA101979AA389A389A19AA130
:1027C000009769F714C06BA17CA18DA19EA10E9406
:1027D0004900DC01CB019AA389A389A19AA19E8F0C
:1027E0008D8F8D8D9E8D0197F1F79E8F8D8F8BAD87
:1027F0008F5F8BAF8BAD823008F46FCF0E941011CA
:102800008134E1F719AE99C089AD882F90E0FC01C1
:10281000EB55FE4F208189AD882F90E0FC01E157F8
:10282000FE4F8081281709F485C010928E010E9406
:10283000C50F21ED30E080E063E0A9010E94911016
:102840002BED30E081E060E0A9010E94911080E072
:1028500090E0AAE7B4E4898F9A8FAB8FBC8F698D23
:102860007A8D8B8D9C8D20E030E04AEF54E40E94FD
:102870001F02DC01CB018D8B9E8BAF8BB88F6D89D6
:102880007E898F89988D20E030E040E85FE30E94E8
:10289000790388232CF481E090E09C8B8B8B3FC0E4
:1028A0006D897E898F89988D20E03FEF4FE757E44F
:1028B0000E94190318164CF5698D7A8D8B8D9C8DAD
:1028C00020E030E040E251E40E941F02DC01CB0135
:1028D000BC01CD010E944900DC01CB019C8B8B8B9C
:1028E0000FC088EC90E09A8B898B89899A8901972F
:1028F000F1F79A8B898B8B899C8901979C8B8B8BA9
:102900008B899C89009769F71CC06D897E898F89A6
:10291000988D0E944900DC01CB019C8B8B8B8B89AD
:102920009C89988B8F878F8598890197F1F7988B71
:102930008F8707C089AD8F5F89AF89AD823008F47A
:1029400063CF80918E01882309F411CE0E94C50FB8
:1029500025EE30E080E063E0A9010E9491102DEEA9
:1029600030E081E060E0A9010E94911080E090E0F9
:10297000AAE7B4E48B879C87AD87BE876B857C858F
:102980008D859E8520E030E04AEF54E40E941F02CE
:10299000DC01CB018F839887A987BA876F817885FF
:1029A00089859A8520E030E040E85FE30E94790362
:1029B00088232CF481E090E09E838D833FC06F815B
:1029C000788589859A8520E03FEF4FE757E40E949C
:1029D000190318164CF56B857C858D859E8520E046
:1029E00030E040E251E40E941F02DC01CB01BC0157
:1029F000CD010E944900DC01CB019E838D830FC075
:102A000088EC90E09C838B838B819C810197F1F70C
:102A10009C838B838D819E8101979E838D838D8185
:102A20009E81009769F714C06F81788589859A85A2
:102A30000E944900DC01CB019E838D838D819E81A4
:102A40009A83898389819A810197F1F79A8389838F
:102A500085EA91E060E070E042E050E00E946C188E
:102A600080E190E063EC0E947618ED960FB6F89442
:102A7000DEBF0FBECDBFCF91DF9108950F931F939F
:102A8000DF93CF9300D0CDB7DEB71A8219820FC083
:102A900009811A8189819A810E946418F801EB5595
:102AA000FE4F808389819A8101969A8389838981E7
:102AB0009A818230910564F30F900F90CF91DF914E
:102AC0001F910F910895DF93CF93CDB7DEB7AF97E6
:102AD0000FB6F894DEBF0FBECDBF0E943E1583E057
:102AE0008EA70E94C50F8CEF90E00E949C0F81E0A2
:102AF00080938E0181E060E00E944D101DA68DC084
:102B00000E9410118CA78CA5803378F08CA58A3395
:102B100060F48DA5882F90E0FC01E157FE4F8CA555
:102B200080838CA50E940B0F03C08DA581508DA7BB
:102B300080E090E0AAEFB3E48FA398A7A9A7BAA773
:102B40006FA178A589A59AA520E030E04AEF54E46A
:102B50000E941F02DC01CB018BA39CA3ADA3BEA3EB
:102B60006BA17CA18DA19EA120E030E040E85FE355
:102B70000E94790388232CF481E090E09AA389A332
:102B80003FC06BA17CA18DA19EA120E03FEF4FE74C
:102B900057E40E94190318164CF56FA178A589A572
:102BA0009AA520E030E040E251E40E941F02DC01DF
:102BB000CB01BC01CD010E944900DC01CB019AA3ED
:102BC00089A30FC088EC90E098A38F8F8F8D98A178
:102BD0000197F1F798A38F8F89A19AA101979AA3E2
:102BE00089A389A19AA1009769F714C06BA17CA160
:102BF0008DA19EA10E944900DC01CB019AA389A36B
:102C000089A19AA19E8F8D8F8D8D9E8D0197F1F751
:102C10009E8F8D8F8DA58F5F8DA78DA5823008F437
:102C20006FCF0E9410118134E1F71BA6A1C08BA5C4
:102C3000882F90E0FC01EB55FE4F20818BA5882F5B
:102C400090E0FC01E157FE4F8081281709F48DC008
:102C500010928E018EA581508EA70E94C50F21ED86
:102C600030E080E063E0A9010E9491102BE031E0A8
:102C700081E060E0A9010E9491108EA5882F90E06C
:102C80000E94AA1080E090E0AAE7B4E4898F9A8FAE
:102C9000AB8FBC8F698D7A8D8B8D9C8D20E030E061
:102CA0004AEF54E40E941F02DC01CB018D8B9E8B06
:102CB000AF8BB88F6D897E898F89988D20E030E049
:102CC00040E85FE30E94790388232CF481E090E0E0
:102CD0009C8B8B8B3FC06D897E898F89988D20E07E
:102CE0003FEF4FE757E40E94190318164CF5698D22
:102CF0007A8D8B8D9C8D20E030E040E251E40E9483
:102D00001F02DC01CB01BC01CD010E944900DC01A6
:102D1000CB019C8B8B8B0FC088EC90E09A8B898BBE
:102D200089899A890197F1F79A8B898B8B899C897C
:102D300001979C8B8B8B8B899C89009769F71CC0B2
:102D40006D897E898F89988D0E944900DC01CB01B5
:102D50009C8B8B8B8B899C89988B8F878F8598898F
:102D60000197F1F7988B8F8707C08BA58F5F8BA793
:102D70008BA5823008F45BCF80918E01813009F001
:102D80007EC00E94C50F25EE30E080E063E0A9011F
:102D90000E94911080E090E0AAE7B4E48B879C87C2
:102DA000AD87BE876B857C858D859E8520E030E074
:102DB0004AEF54E40E941F02DC01CB018F83988705
:102DC000A987BA876F81788589859A8520E030E068
:102DD00040E85FE30E94790388232CF481E090E0CF
:102DE0009E838D833FC06F81788589859A8520E099
:102DF0003FEF4FE757E40E94190318164CF56B8517
:102E00007C858D859E8520E030E040E251E40E9483
:102E10001F02DC01CB01BC01CD010E944900DC0195
:102E2000CB019E838D830FC088EC90E09C838B83C5
:102E30008B819C810197F1F79C838B838D819E818F
:102E400001979E838D838D819E81009769F714C0C1
:102E50006F81788589859A850E944900DC01CB01C4
:102E60009E838D838D819E819A83898389819A81B6
:102E70000197F1F79A83898381E08FA705C08EA51A
:102E8000882309F02ECE1FA68FA5AF960FB6F89413
:102E9000DEBF0FBECDBFCF91DF910895DF93CF93FB
:102EA000CDB7DEB70E946315813009F04AC08CE6C9
:102EB00091E00E94D7060E94C50F89E191E00E942F
:102EC0009C0F10928A011092890181E00E945A0B96
:102ED0008091890190918A0180389105C9F70E94FB
:102EE000C50F8AE291E00E949C0F10928A01109215
:102EF000890180E00E945A0B8091890190918A019A
:102F000080349105C9F70E94C50F89E391E00E94C2
:102F10009C0F10928A011092890182E00E945A0B44
:102F20008091890190918A0180389105C9F71092AA
:102F30008A011092890180E00E945A0B0E942007AA
:102F400002C00E94B617CF91DF910895DF93CF930F
:102F5000CDB7DEB70E946315813019F40E94AD121F
:102F600002C00E94B617CF91DF910895DF93CF93EF
:102F7000CDB7DEB70E94C50F2AE431E080E063E000
:102F8000A9010E94911024E531E081E060E0A901EF
:102F90000E9491108CE691E00E94D70610928A015F
:102FA000109289010E94AD118091890190918A014E
:102FB00021E080349207C1F70E94B911CF91DF91CF
:102FC0000895A1E21A2EAA1BBB1BFD010DC0AA1F6A
:102FD000BB1FEE1FFF1FA217B307E407F50720F082
:102FE000A21BB30BE40BF50B661F771F881F991FFD
:102FF0001A9469F760957095809590959B01AC0146
:10300000BD01CF0108952F923F924F925F926F9230
:103010007F928F929F92AF92BF92CF92DF92EF9268
:10302000FF920F931F93CF93DF93CDB7DEB7CA1BE9
:10303000DB0B0FB6F894DEBF0FBECDBF09942A8814
:10304000398848885F846E847D848C849B84AA84BC
:10305000B984C884DF80EE80FD800C811B81AA8149
:10306000B981CE0FD11D0FB6F894DEBF0FBECDBF14
:10307000ED010895FB01DC018D9101908019011093
:10308000D9F3990B0895FB019F01E8944230C4F0F5
:103090004532B4F44A3029F497FB1EF4909581959B
:1030A0009F4F642F77270E949318805D8A330CF01E
:1030B000895D8193CB010097A1F716F45DE25193EE
:1030C0001082C9010C948318E199FECF9FBB8EBB7F
:1030D000E09A99278DB30895DC01CB0103C02D91AF
:1030E0000E94771841505040D0F70895262FE1995B
:1030F000FECF9FBB8EBB2DBB0FB6F894E29AE19A30
:103100000FBE01960895DC01FC01672F71917723B2
:10311000E1F7329704C07C916D9370836291AE1792
:10312000BF07C8F30895AA1BBB1B51E107C0AA1F24
:10313000BB1FA617B70710F0A61BB70B881F991F58
:103140005A95A9F780959095BC01CD010895F89402
:02315000FFCFAF
:103152002A6C69676874002A4C69676874002A746B
:1031620075726E206F6E207468652066616E002A2B
:103172007475726E206F6666207468652066616E73
:10318200002A203A204F70656E20446F6F72002330
:10319200203A204368616E67652050617373004571
:1031A2006E746572204E657720506173733A200009
:1031B200456E746572205061737320616761696E38
:1031C20000556E4D617463686564005472792061C4
:1031D2006761696E004D6174636865640050617374
:1031E20073776F726420536176656400506C7A2045
:1031F200456E746572205061737300546972657311
:10320200204C656674203D20004F70656E696E67C4
:103212002074686520446F6F7200446F6F7220697A
:1032220073204F70656E656400436C6F73696E67DF
:103232002074686520446F6F72004552524F5220CD
:103242002121210054727920416761696E204C610D
:103252007465720000000000000000000000FA0027
:1032620005013132334134353642373839432A3059
:023272002344F3
:00000001FF
